{
  "contractName": "Event",
  "abi": [
    {
      "constant": false,
      "inputs": [
        {
          "name": "_title",
          "type": "bytes32"
        },
        {
          "name": "_description",
          "type": "bytes32"
        },
        {
          "name": "_topic",
          "type": "bytes32"
        },
        {
          "name": "_option1",
          "type": "bytes32"
        },
        {
          "name": "_option2",
          "type": "bytes32"
        },
        {
          "name": "_option3",
          "type": "bytes32"
        },
        {
          "name": "_option4",
          "type": "bytes32"
        },
        {
          "name": "_date",
          "type": "uint256"
        },
        {
          "name": "_votes",
          "type": "uint256"
        }
      ],
      "name": "setEvent",
      "outputs": [
        {
          "name": "",
          "type": "uint256"
        }
      ],
      "payable": false,
      "stateMutability": "nonpayable",
      "type": "function"
    },
    {
      "constant": true,
      "inputs": [],
      "name": "getEventsLength",
      "outputs": [
        {
          "name": "",
          "type": "uint256"
        }
      ],
      "payable": false,
      "stateMutability": "view",
      "type": "function"
    },
    {
      "constant": true,
      "inputs": [
        {
          "name": "index",
          "type": "uint32"
        }
      ],
      "name": "getEventOptions",
      "outputs": [
        {
          "name": "",
          "type": "bytes32"
        },
        {
          "name": "",
          "type": "bytes32"
        },
        {
          "name": "",
          "type": "bytes32"
        },
        {
          "name": "",
          "type": "bytes32"
        }
      ],
      "payable": false,
      "stateMutability": "view",
      "type": "function"
    },
    {
      "constant": true,
      "inputs": [
        {
          "name": "index",
          "type": "uint32"
        }
      ],
      "name": "getEvent",
      "outputs": [
        {
          "name": "",
          "type": "bytes32"
        },
        {
          "name": "",
          "type": "bytes32"
        },
        {
          "name": "",
          "type": "bytes32"
        },
        {
          "name": "",
          "type": "uint256"
        },
        {
          "name": "",
          "type": "uint256"
        }
      ],
      "payable": false,
      "stateMutability": "view",
      "type": "function"
    }
  ],
  "bytecode": "0x6060604052341561000f57600080fd5b6106078061001e6000396000f300606060405260043610610062576000357c0100000000000000000000000000000000000000000000000000000000900463ffffffff1680630143cc0b1461006757806347fc216e146101025780639c203e281461012b578063d88c8e981461019d575b600080fd5b341561007257600080fd5b6100ec60048080356000191690602001909190803560001916906020019091908035600019169060200190919080356000191690602001909190803560001916906020019091908035600019169060200190919080356000191690602001909190803590602001909190803590602001909190505061020e565b6040518082815260200191505060405180910390f35b341561010d57600080fd5b610115610342565b6040518082815260200191505060405180910390f35b341561013657600080fd5b610152600480803563ffffffff16906020019091905050610352565b60405180856000191660001916815260200184600019166000191681526020018360001916600019168152602001826000191660001916815260200194505050505060405180910390f35b34156101a857600080fd5b6101c4600480803563ffffffff16906020019091905050610403565b604051808660001916600019168152602001856000191660001916815260200184600019166000191681526020018381526020018281526020019550505050505060405180910390f35b60006102186104e0565b610120604051908101604052808c6000191681526020018b6000191681526020018a600019168152602001896000191681526020018860001916815260200187600019168152602001866000191681526020018581526020018481525090506000805480600101828161028b9190610542565b91600052602060002090600902016000839091909150600082015181600001906000191690556020820151816001019060001916905560408201518160020190600019169055606082015181600301906000191690556080820151816004019060001916905560a0820151816005019060001916905560c0820151816006019060001916905560e0820151816007015561010082015181600801555050506001600080549050039150509998505050505050505050565b6000600160008054905003905090565b60008060008060008563ffffffff1681548110151561036d57fe5b90600052602060002090600902016003015460008663ffffffff1681548110151561039457fe5b90600052602060002090600902016004015460008763ffffffff168154811015156103bb57fe5b90600052602060002090600902016005015460008863ffffffff168154811015156103e257fe5b90600052602060002090600902016006015493509350935093509193509193565b6000806000806000808663ffffffff1681548110151561041f57fe5b90600052602060002090600902016000015460008763ffffffff1681548110151561044657fe5b90600052602060002090600902016001015460008863ffffffff1681548110151561046d57fe5b90600052602060002090600902016002015460008963ffffffff1681548110151561049457fe5b90600052602060002090600902016007015460008a63ffffffff168154811015156104bb57fe5b9060005260206000209060090201600801549450945094509450945091939590929450565b610120604051908101604052806000801916815260200160008019168152602001600080191681526020016000801916815260200160008019168152602001600080191681526020016000801916815260200160008152602001600081525090565b81548183558181151161056f5760090281600902836000526020600020918201910161056e9190610574565b5b505050565b6105d891905b808211156105d457600080820160009055600182016000905560028201600090556003820160009055600482016000905560058201600090556006820160009055600782016000905560088201600090555060090161057a565b5090565b905600a165627a7a723058206c1ffa75c2fa5891870519ec742dfd7095f2a1c837faadad8a8e804d4d03cc9e0029",
  "source": "pragma solidity ^0.4.15;\n\ncontract Event {\n    struct EventStruct{\n        bytes32 title;\n        bytes32 description;\n        bytes32 topic;\n        bytes32 option1;\n        bytes32 option2;\n        bytes32 option3;\n        bytes32 option4;\n        uint256 date; // This will store just the day, not the time\n        uint256 votes;\n    }\n    EventStruct[] events;\n\n    // Event has too much variables for solidity.\n    // Since solidity only allows each function to have 16 variables of 32 bits\n    // Because of this reason the function will be splited into two\n    function getEvent(uint32 index) public view returns(\n        bytes32,\n        bytes32,\n        bytes32,\n        uint256,\n        uint256){\n\n        return(events[index].title,\n               events[index].description,\n               events[index].topic,\n               events[index].date,\n               events[index].votes);\n    }\n    function getEventOptions(uint32 index) public view returns(\n        bytes32,\n        bytes32,\n        bytes32,\n        bytes32\n    ){\n        return(events[index].option1,\n            events[index].option2,\n            events[index].option3,\n            events[index].option4\n        );\n    }\n\n    function setEvent(\n        bytes32 _title, \n        bytes32 _description, \n        bytes32 _topic,\n        bytes32 _option1,\n        bytes32 _option2,\n        bytes32 _option3,\n        bytes32 _option4,\n        uint256 _date,\n        uint256 _votes\n    ) public returns(uint256){ // Returns the index where the event is store\n        EventStruct memory _event = EventStruct({\n            title: _title,\n            description: _description,\n            topic: _topic,\n            option1: _option1,\n            option2: _option2,\n            option3: _option3,\n            option4: _option4,\n            date: _date,\n            votes: _votes\n        });\n        events.push(_event);\n        return events.length-1;\n    }\n    function getEventsLength() public view returns(uint256){\n        return events.length-1;\n    }\n\n    //TODO: Get current day events\n}\n",
  "sourcePath": "/Users/carlosgj94/Development/Solidity/VueGuesser/contracts/Event.sol",
  "compiler": {
    "name": "solc",
    "version": "0.4.18+commit.9cf6e910.Emscripten.clang"
  },
  "schemaVersion": "1.0.1",
  "updatedAt": "2017-12-08T18:44:19.408Z"
}