{
  "contractName": "Guess",
  "abi": [
    {
      "constant": true,
      "inputs": [],
      "name": "getGuessesLength",
      "outputs": [
        {
          "name": "",
          "type": "uint256"
        }
      ],
      "payable": false,
      "stateMutability": "view",
      "type": "function"
    },
    {
      "constant": false,
      "inputs": [
        {
          "name": "_title",
          "type": "bytes32"
        },
        {
          "name": "_description",
          "type": "bytes32"
        }
      ],
      "name": "setGuess",
      "outputs": [
        {
          "name": "",
          "type": "bytes32"
        },
        {
          "name": "",
          "type": "bytes32"
        }
      ],
      "payable": false,
      "stateMutability": "nonpayable",
      "type": "function"
    },
    {
      "constant": true,
      "inputs": [
        {
          "name": "index",
          "type": "uint256"
        }
      ],
      "name": "getGuess",
      "outputs": [
        {
          "name": "",
          "type": "bytes32"
        },
        {
          "name": "",
          "type": "bytes32"
        }
      ],
      "payable": false,
      "stateMutability": "view",
      "type": "function"
    }
  ],
  "bytecode": "0x6060604052341561000f57600080fd5b61030e8061001e6000396000f300606060405260043610610057576000357c0100000000000000000000000000000000000000000000000000000000900463ffffffff168063548963401461005c578063b749108914610085578063e9e6de2a146100e4575b600080fd5b341561006757600080fd5b61006f610132565b6040518082815260200191505060405180910390f35b341561009057600080fd5b6100b76004808035600019169060200190919080356000191690602001909190505061013e565b60405180836000191660001916815260200182600019166000191681526020019250505060405180910390f35b34156100ef57600080fd5b6101056004808035906020019091905050610213565b60405180836000191660001916815260200182600019166000191681526020019250505060405180910390f35b60008080549050905090565b600080610149610261565b604080519081016040528086600019168152602001856000191681525090506000805480600101828161017c9190610281565b91600052602060002090600202016000839091909150600082015181600001906000191690556020820151816001019060001916905550505060006001600080549050038154811015156101cc57fe5b90600052602060002090600202016000015460006001600080549050038154811015156101f557fe5b90600052602060002090600202016001015492509250509250929050565b60008060008381548110151561022557fe5b90600052602060002090600202016000015460008481548110151561024657fe5b90600052602060002090600202016001015491509150915091565b604080519081016040528060008019168152602001600080191681525090565b8154818355818115116102ae576002028160020283600052602060002091820191016102ad91906102b3565b5b505050565b6102df91905b808211156102db576000808201600090556001820160009055506002016102b9565b5090565b905600a165627a7a72305820d1c284d36f86b375554ef199aa898dd06c037811eae048b83aefa5dce831446c0029",
  "source": "pragma solidity ^0.4.15;\n\ncontract Guess {\n    struct GuessStruct{\n        bytes32 title;\n        bytes32 description;\n    }\n    GuessStruct[] guesses;\n\n    function getGuess(uint256 index) public view returns(bytes32, bytes32){\n        return (guesses[index].title, guesses[index].description);\n    }\n    function setGuess(bytes32 _title, bytes32 _description) public returns (bytes32, bytes32){\n        GuessStruct memory _guess = GuessStruct({\n            title: _title,\n            description: _description\n        });\n        guesses.push(_guess);\n\n        return (guesses[guesses.length-1].title, guesses[guesses.length-1].description);\n    }\n    function getGuessesLength() public view returns (uint256){\n        return guesses.length;\n    }\n}\n",
  "sourcePath": "/Users/carlosgj94/Development/Solidity/VueGuesser/contracts/Guess.sol",
  "compiler": {
    "name": "solc",
    "version": "0.4.18+commit.9cf6e910.Emscripten.clang"
  },
  "schemaVersion": "1.0.1",
  "updatedAt": "2017-11-18T11:01:30.687Z"
}