{
  "contractName": "Guess",
  "abi": [
    {
      "constant": true,
      "inputs": [],
      "name": "getTitlesLength",
      "outputs": [
        {
          "name": "",
          "type": "uint256"
        }
      ],
      "payable": false,
      "stateMutability": "view",
      "type": "function"
    },
    {
      "constant": true,
      "inputs": [
        {
          "name": "index",
          "type": "uint256"
        }
      ],
      "name": "getTitles",
      "outputs": [
        {
          "name": "",
          "type": "string"
        }
      ],
      "payable": false,
      "stateMutability": "view",
      "type": "function"
    },
    {
      "constant": false,
      "inputs": [
        {
          "name": "_title",
          "type": "string"
        }
      ],
      "name": "setTitle",
      "outputs": [
        {
          "name": "",
          "type": "string"
        }
      ],
      "payable": false,
      "stateMutability": "nonpayable",
      "type": "function"
    }
  ],
  "bytecode": "0x6060604052341561000f57600080fd5b6105508061001e6000396000f300606060405260043610610057576000357c0100000000000000000000000000000000000000000000000000000000900463ffffffff1680630cc94d211461005c5780633faa0c6c1461008557806372910be014610121575b600080fd5b341561006757600080fd5b61006f6101f7565b6040518082815260200191505060405180910390f35b341561009057600080fd5b6100a66004808035906020019091905050610203565b6040518080602001828103825283818151815260200191508051906020019080838360005b838110156100e65780820151818401526020810190506100cb565b50505050905090810190601f1680156101135780820380516001836020036101000a031916815260200191505b509250505060405180910390f35b341561012c57600080fd5b61017c600480803590602001908201803590602001908080601f016020809104026020016040519081016040528093929190818152602001838380828437820191505050505050919050506102c5565b6040518080602001828103825283818151815260200191508051906020019080838360005b838110156101bc5780820151818401526020810190506101a1565b50505050905090810190601f1680156101e95780820380516001836020036101000a031916815260200191505b509250505060405180910390f35b60008080549050905090565b61020b6103cb565b60008281548110151561021a57fe5b90600052602060002090018054600181600116156101000203166002900480601f0160208091040260200160405190810160405280929190818152602001828054600181600116156101000203166002900480156102b95780601f1061028e576101008083540402835291602001916102b9565b820191906000526020600020905b81548152906001019060200180831161029c57829003601f168201915b50505050509050919050565b6102cd6103cb565b600080548060010182816102e191906103df565b91600052602060002090016000849091909150908051906020019061030792919061040b565b5050600060016000805490500381548110151561032057fe5b90600052602060002090018054600181600116156101000203166002900480601f0160208091040260200160405190810160405280929190818152602001828054600181600116156101000203166002900480156103bf5780601f10610394576101008083540402835291602001916103bf565b820191906000526020600020905b8154815290600101906020018083116103a257829003601f168201915b50505050509050919050565b602060405190810160405280600081525090565b81548183558181151161040657818360005260206000209182019101610405919061048b565b5b505050565b828054600181600116156101000203166002900490600052602060002090601f016020900481019282601f1061044c57805160ff191683800117855561047a565b8280016001018555821561047a579182015b8281111561047957825182559160200191906001019061045e565b5b50905061048791906104b7565b5090565b6104b491905b808211156104b057600081816104a791906104dc565b50600101610491565b5090565b90565b6104d991905b808211156104d55760008160009055506001016104bd565b5090565b90565b50805460018160011615610100020316600290046000825580601f106105025750610521565b601f01602090049060005260206000209081019061052091906104b7565b5b505600a165627a7a723058205496c3af6955fd3cea5d7d5e35648906906f458aa5e366389c8a9f0111e70d690029",
  "source": "pragma solidity ^0.4.15;\n\ncontract Guess {\n    string[] titles;\n\n    function getTitles(uint256 index) public view returns(string){\n        return titles[index];\n    }\n    function setTitle(string _title) public returns (string){\n        titles.push(_title);\n        return titles[titles.length-1];\n    }\n    function getTitlesLength() public view returns (uint256){\n        return titles.length;\n    }\n}\n",
  "sourcePath": "/Users/carlosgj94/Development/Solidity/VueGuesser/contracts/Guess.sol",
  "compiler": {
    "name": "solc",
    "version": "0.4.18+commit.9cf6e910.Emscripten.clang"
  },
  "schemaVersion": "1.0.1",
  "updatedAt": "2017-11-15T22:33:55.679Z"
}