{
  "contractName": "Guess",
  "abi": [
    {
      "constant": false,
      "inputs": [
        {
          "name": "_title",
          "type": "bytes32"
        },
        {
          "name": "_description",
          "type": "bytes32"
        },
        {
          "name": "_option1",
          "type": "bytes32"
        },
        {
          "name": "_option2",
          "type": "bytes32"
        },
        {
          "name": "_option3",
          "type": "bytes32"
        },
        {
          "name": "_option4",
          "type": "bytes32"
        }
      ],
      "name": "setGuess",
      "outputs": [
        {
          "name": "",
          "type": "uint256"
        }
      ],
      "payable": false,
      "stateMutability": "nonpayable",
      "type": "function"
    },
    {
      "constant": true,
      "inputs": [],
      "name": "getGuessesLength",
      "outputs": [
        {
          "name": "",
          "type": "uint256"
        }
      ],
      "payable": false,
      "stateMutability": "view",
      "type": "function"
    },
    {
      "constant": true,
      "inputs": [
        {
          "name": "index",
          "type": "uint256"
        }
      ],
      "name": "getGuess",
      "outputs": [
        {
          "name": "",
          "type": "bytes32"
        },
        {
          "name": "",
          "type": "bytes32"
        },
        {
          "name": "",
          "type": "bytes32"
        },
        {
          "name": "",
          "type": "bytes32"
        },
        {
          "name": "",
          "type": "bytes32"
        },
        {
          "name": "",
          "type": "bytes32"
        }
      ],
      "payable": false,
      "stateMutability": "view",
      "type": "function"
    }
  ],
  "bytecode": "0x6060604052341561000f57600080fd5b6104678061001e6000396000f300606060405260043610610057576000357c0100000000000000000000000000000000000000000000000000000000900463ffffffff16806341b907881461005c57806354896340146100d8578063e9e6de2a14610101575b600080fd5b341561006757600080fd5b6100c2600480803560001916906020019091908035600019169060200190919080356000191690602001909190803560001916906020019091908035600019169060200190919080356000191690602001909190505061018b565b6040518082815260200191505060405180910390f35b34156100e357600080fd5b6100eb610280565b6040518082815260200191505060405180910390f35b341561010c57600080fd5b610122600480803590602001909190505061028d565b60405180876000191660001916815260200186600019166000191681526020018560001916600019168152602001846000191660001916815260200183600019166000191681526020018260001916600019168152602001965050505050505060405180910390f35b6000610195610371565b60c060405190810160405280896000191681526020018860001916815260200187600019168152602001866000191681526020018560001916815260200184600019168152509050600680548060010182816101f191906103ba565b91600052602060002090600602016000839091909150600082015181600001906000191690556020820151816001019060001916905560408201518160020190600019169055606082015181600301906000191690556080820151816004019060001916905560a082015181600501906000191690555050506001600680549050039150509695505050505050565b6000600680549050905090565b6000806000806000806006878154811015156102a557fe5b9060005260206000209060060201600001546006888154811015156102c657fe5b9060005260206000209060060201600101546006898154811015156102e757fe5b90600052602060002090600602016002015460068a81548110151561030857fe5b90600052602060002090600602016003015460068b81548110151561032957fe5b90600052602060002090600602016004015460068c81548110151561034a57fe5b90600052602060002090600602016005015495509550955095509550955091939550919395565b60c0604051908101604052806000801916815260200160008019168152602001600080191681526020016000801916815260200160008019168152602001600080191681525090565b8154818355818115116103e7576006028160060283600052602060002091820191016103e691906103ec565b5b505050565b61043891905b808211156104345760008082016000905560018201600090556002820160009055600382016000905560048201600090556005820160009055506006016103f2565b5090565b905600a165627a7a7230582079420439a8e1c8ea38b73ae989a96e06c86e18cc689e934333c339a67b6f51cb0029",
  "source": "pragma solidity ^0.4.15;\n\ncontract Guess {\n    struct GuessStruct{\n        bytes32 title;\n        bytes32 description;\n        bytes32 option1;\n        bytes32 option2;\n        bytes32 option3;\n        bytes32 option4;\n    }\n    GuessStruct _guessTemp;\n    GuessStruct[] guesses;\n\n    function getGuess(uint256 index) public view returns(bytes32, bytes32, bytes32, bytes32, bytes32, bytes32){\n        return (guesses[index].title, \n                guesses[index].description, \n                guesses[index].option1,\n                guesses[index].option2,\n                guesses[index].option3,\n                guesses[index].option4\n               );\n    }\n    function setGuess(\n        bytes32 _title, \n        bytes32 _description, \n        bytes32 _option1,\n        bytes32 _option2,\n        bytes32 _option3,\n        bytes32 _option4\n    ) public returns (uint256){\n        GuessStruct memory _guess = GuessStruct({\n            title: _title,\n            description: _description,\n            option1: _option1,\n            option2: _option2,\n            option3: _option3,\n            option4: _option4\n        });\n\n        guesses.push(_guess);\n        return guesses.length-1;\n    }\n    function getGuessesLength() public view returns (uint256){\n        return guesses.length;\n    }\n}\n",
  "sourcePath": "/Users/carlosgj94/Development/Solidity/VueGuesser/contracts/Guess.sol",
  "compiler": {
    "name": "solc",
    "version": "0.4.18+commit.9cf6e910.Emscripten.clang"
  },
  "schemaVersion": "1.0.1",
  "updatedAt": "2017-11-21T19:06:35.654Z"
}