{
  "contractName": "Guess",
  "abi": [
    {
      "constant": false,
      "inputs": [
        {
          "name": "_title",
          "type": "string"
        }
      ],
      "name": "setTitle",
      "outputs": [
        {
          "name": "",
          "type": "string"
        }
      ],
      "payable": false,
      "stateMutability": "nonpayable",
      "type": "function"
    },
    {
      "constant": true,
      "inputs": [],
      "name": "getTitle",
      "outputs": [
        {
          "name": "",
          "type": "string"
        }
      ],
      "payable": false,
      "stateMutability": "view",
      "type": "function"
    }
  ],
  "bytecode": "0x6060604052341561000f57600080fd5b6104038061001e6000396000f30060606040526004361061004c576000357c0100000000000000000000000000000000000000000000000000000000900463ffffffff16806372910be014610051578063ff3c1a8f14610127575b600080fd5b341561005c57600080fd5b6100ac600480803590602001908201803590602001908080601f016020809104026020016040519081016040528093929190818152602001838380828437820191505050505050919050506101b5565b6040518080602001828103825283818151815260200191508051906020019080838360005b838110156100ec5780820151818401526020810190506100d1565b50505050905090810190601f1680156101195780820380516001836020036101000a031916815260200191505b509250505060405180910390f35b341561013257600080fd5b61013a610276565b6040518080602001828103825283818151815260200191508051906020019080838360005b8381101561017a57808201518184015260208101905061015f565b50505050905090810190601f1680156101a75780820380516001836020036101000a031916815260200191505b509250505060405180910390f35b6101bd61031e565b81600090805190602001906101d3929190610332565b5060008054600181600116156101000203166002900480601f01602080910402602001604051908101604052809291908181526020018280546001816001161561010002031660029004801561026a5780601f1061023f5761010080835404028352916020019161026a565b820191906000526020600020905b81548152906001019060200180831161024d57829003601f168201915b50505050509050919050565b61027e61031e565b60008054600181600116156101000203166002900480601f0160208091040260200160405190810160405280929190818152602001828054600181600116156101000203166002900480156103145780601f106102e957610100808354040283529160200191610314565b820191906000526020600020905b8154815290600101906020018083116102f757829003601f168201915b5050505050905090565b602060405190810160405280600081525090565b828054600181600116156101000203166002900490600052602060002090601f016020900481019282601f1061037357805160ff19168380011785556103a1565b828001600101855582156103a1579182015b828111156103a0578251825591602001919060010190610385565b5b5090506103ae91906103b2565b5090565b6103d491905b808211156103d05760008160009055506001016103b8565b5090565b905600a165627a7a7230582095cce2afd329b56f950c039c5ae432ff7e4d75b5a294272f46c45b6c17ca11110029",
  "source": "pragma solidity ^0.4.15;\n\ncontract Guess {\n    string title;\n\n    function getTitle() public view returns(string){\n        return title;\n    }\n    function setTitle(string _title) public returns (string){\n        title = _title;\n        return title;\n    }\n\n}\n",
  "sourcePath": "/Users/carlosgj94/Development/Solidity/VueGuesser/contracts/Guess.sol",
  "compiler": {
    "name": "solc",
    "version": "0.4.18+commit.9cf6e910.Emscripten.clang"
  },
  "schemaVersion": "1.0.1",
  "updatedAt": "2017-11-15T16:55:54.590Z"
}