{
  "contractName": "Users",
  "abi": [
    {
      "constant": true,
      "inputs": [],
      "name": "authenticate",
      "outputs": [
        {
          "name": "_pseudo",
          "type": "bytes32"
        }
      ],
      "payable": false,
      "stateMutability": "view",
      "type": "function"
    },
    {
      "constant": false,
      "inputs": [
        {
          "name": "_pseudo",
          "type": "bytes32"
        }
      ],
      "name": "create",
      "outputs": [],
      "payable": false,
      "stateMutability": "nonpayable",
      "type": "function"
    },
    {
      "constant": false,
      "inputs": [],
      "name": "destroy",
      "outputs": [],
      "payable": false,
      "stateMutability": "nonpayable",
      "type": "function"
    },
    {
      "constant": true,
      "inputs": [
        {
          "name": "",
          "type": "address"
        }
      ],
      "name": "users",
      "outputs": [
        {
          "name": "",
          "type": "bytes32"
        }
      ],
      "payable": false,
      "stateMutability": "view",
      "type": "function"
    },
    {
      "constant": true,
      "inputs": [
        {
          "name": "_address",
          "type": "address"
        }
      ],
      "name": "get",
      "outputs": [
        {
          "name": "_pseudo",
          "type": "bytes32"
        }
      ],
      "payable": false,
      "stateMutability": "view",
      "type": "function"
    },
    {
      "constant": true,
      "inputs": [
        {
          "name": "_address",
          "type": "address"
        }
      ],
      "name": "exists",
      "outputs": [
        {
          "name": "_exists",
          "type": "bool"
        }
      ],
      "payable": false,
      "stateMutability": "view",
      "type": "function"
    },
    {
      "anonymous": false,
      "inputs": [
        {
          "indexed": true,
          "name": "_address",
          "type": "address"
        },
        {
          "indexed": false,
          "name": "_pseudo",
          "type": "bytes32"
        }
      ],
      "name": "UserCreated",
      "type": "event"
    },
    {
      "anonymous": false,
      "inputs": [
        {
          "indexed": true,
          "name": "_address",
          "type": "address"
        }
      ],
      "name": "UserDestroyed",
      "type": "event"
    }
  ],
  "bytecode": "0x6060604052341561000f57600080fd5b6104708061001e6000396000f300606060405260043610610078576000357c0100000000000000000000000000000000000000000000000000000000900463ffffffff168063380c7a671461007d5780637368a8ce146100ae57806383197ef0146100d5578063a87430ba146100ea578063c2bc2efc1461013f578063f6a3d24e14610194575b600080fd5b341561008857600080fd5b6100906101e5565b60405180826000191660001916815260200191505060405180910390f35b34156100b957600080fd5b6100d360048080356000191690602001909190505061023f565b005b34156100e057600080fd5b6100e86102df565b005b34156100f557600080fd5b610121600480803573ffffffffffffffffffffffffffffffffffffffff1690602001909190505061037a565b60405180826000191660001916815260200191505060405180910390f35b341561014a57600080fd5b610176600480803573ffffffffffffffffffffffffffffffffffffffff16906020019091905050610392565b60405180826000191660001916815260200191505060405180910390f35b341561019f57600080fd5b6101cb600480803573ffffffffffffffffffffffffffffffffffffffff169060200190919050506103ee565b604051808215151515815260200191505060405180910390f35b60006101f0336103ee565b15156101fb57600080fd5b6000803373ffffffffffffffffffffffffffffffffffffffff1673ffffffffffffffffffffffffffffffffffffffff16815260200190815260200160002054905090565b806000803373ffffffffffffffffffffffffffffffffffffffff1673ffffffffffffffffffffffffffffffffffffffff16815260200190815260200160002081600019169055503373ffffffffffffffffffffffffffffffffffffffff167f18ec7dd8c4d713eb3c2e0c61825f878a47e207600626611c5bc15009c743b4b68260405180826000191660001916815260200191505060405180910390a250565b6102e8336103ee565b15156102f357600080fd5b6000803373ffffffffffffffffffffffffffffffffffffffff1673ffffffffffffffffffffffffffffffffffffffff168152602001908152602001600020600090553373ffffffffffffffffffffffffffffffffffffffff167f36539d9970f057e4d26f828835b69fcfff15ff997f804dace8aed405cb98455f60405160405180910390a2565b60006020528060005260406000206000915090505481565b600061039d826103ee565b15156103a857600080fd5b6000808373ffffffffffffffffffffffffffffffffffffffff1673ffffffffffffffffffffffffffffffffffffffff168152602001908152602001600020549050919050565b600080600102600019166000808473ffffffffffffffffffffffffffffffffffffffff1673ffffffffffffffffffffffffffffffffffffffff1681526020019081526020016000205460001916141590509190505600a165627a7a72305820f8e56b36373da9080e0fb1f393cf3147c60cf5a3616c3dd5d9bd44dd9e12978b0029",
  "source": "pragma solidity ^0.4.15;\n\ncontract Users {\n\n  mapping(address => bytes32) public users;\n\n  event UserCreated(address indexed _address, bytes32 _pseudo);\n  event UserDestroyed(address indexed _address);\n\n  function exists (address _address) public constant returns (bool _exists) {\n    return (users[_address] != bytes32(0));\n  }\n\n  function authenticate () public constant returns (bytes32 _pseudo) {\n    require(exists(msg.sender));\n    return (users[msg.sender]);\n  }\n\n  function create (bytes32 _pseudo) public {\n    users[msg.sender] = _pseudo ;\n    UserCreated(msg.sender, _pseudo);\n  }\n\n  function destroy () public {\n    require(exists(msg.sender));\n    delete users[msg.sender];\n    UserDestroyed(msg.sender);\n  }\n\n  function get (address _address) public constant returns(bytes32 _pseudo) {\n    require(exists(_address));\n    return (users[_address]);\n  }\n\n}\n",
  "sourcePath": "/Users/carlosgj94/Development/Solidity/VueGuesser/contracts/Users.sol",
  "compiler": {
    "name": "solc",
    "version": "0.4.18+commit.9cf6e910.Emscripten.clang"
  },
  "schemaVersion": "1.0.1",
  "updatedAt": "2017-12-05T18:39:02.340Z"
}