{
  "contractName": "User",
  "abi": [
    {
      "constant": true,
      "inputs": [],
      "name": "getUser",
      "outputs": [
        {
          "name": "",
          "type": "bytes32"
        },
        {
          "name": "",
          "type": "uint256"
        },
        {
          "name": "",
          "type": "bytes32"
        }
      ],
      "payable": false,
      "stateMutability": "view",
      "type": "function"
    },
    {
      "constant": false,
      "inputs": [
        {
          "name": "_username",
          "type": "bytes32"
        },
        {
          "name": "_image_url",
          "type": "bytes32"
        }
      ],
      "name": "setUser",
      "outputs": [],
      "payable": false,
      "stateMutability": "nonpayable",
      "type": "function"
    }
  ],
  "bytecode": "0x6060604052341561000f57600080fd5b6102ad8061001e6000396000f30060606040526004361061004c576000357c0100000000000000000000000000000000000000000000000000000000900463ffffffff168063832880e7146100515780638ce15cd614610098575b600080fd5b341561005c57600080fd5b6100646100cc565b6040518084600019166000191681526020018381526020018260001916600019168152602001935050505060405180910390f35b34156100a357600080fd5b6100ca600480803560001916906020019091908035600019169060200190919050506101a2565b005b60008060008060003373ffffffffffffffffffffffffffffffffffffffff1673ffffffffffffffffffffffffffffffffffffffff168152602001908152602001600020600001546000803373ffffffffffffffffffffffffffffffffffffffff1673ffffffffffffffffffffffffffffffffffffffff168152602001908152602001600020600101546000803373ffffffffffffffffffffffffffffffffffffffff1673ffffffffffffffffffffffffffffffffffffffff16815260200190815260200160002060020154925092509250909192565b816000803373ffffffffffffffffffffffffffffffffffffffff1673ffffffffffffffffffffffffffffffffffffffff168152602001908152602001600020600001816000191690555060008060003373ffffffffffffffffffffffffffffffffffffffff1673ffffffffffffffffffffffffffffffffffffffff16815260200190815260200160002060010181905550806000803373ffffffffffffffffffffffffffffffffffffffff1673ffffffffffffffffffffffffffffffffffffffff168152602001908152602001600020600201816000191690555050505600a165627a7a723058207708d37a56307fd254a750127716b353e2034d8f5d3887efb3a51e724c9580920029",
  "source": "pragma solidity ^0.4.15;\n\ncontract User {\n    struct UserStruct {\n        bytes32 username;\n        uint256 balance;\n        bytes32 image_url;\n    }\n\n    mapping (address => UserStruct) users;\n\n    function setUser(bytes32 _username, bytes32 _image_url) public {\n        users[msg.sender].username = _username;\n        users[msg.sender].balance = 0;\n        users[msg.sender].image_url = _image_url;\n    }\n\n    function getUser() public view returns(bytes32, uint256, bytes32){\n        return (\n            users[msg.sender].username,\n            users[msg.sender].balance,\n            users[msg.sender].image_url\n        );\n    }\n}\n",
  "sourcePath": "/Users/carlosgj94/Development/Solidity/VueGuesser/contracts/User.sol",
  "compiler": {
    "name": "solc",
    "version": "0.4.18+commit.9cf6e910.Emscripten.clang"
  },
  "schemaVersion": "1.0.1",
  "updatedAt": "2017-12-07T14:32:48.050Z"
}